:03000000020D1DD1
:0F0D1D00787FE4F6D8FD75A00075812B020D6775
:100E8500040E0000000004080000C800041400005F
:0A0E9500000002120000020C000031
:100DAC00AF27AE26AD25AC24120A43EE3395E08F67
:100DBC00178E16F515F514FDAC147808120B328F3E
:080DCC00FC8517FB7F887E13F4
:100DD400E4FDFCC3ED9FEE6480F8EC64809850154C
:100DE400E4FBFA0BBB00010AEB64854A70F50DBD08
:050DF40000010C80DE8F
:010DF90022D7
:100E670075C60375B901E5BCB4FF12E5BDB4FF0D46
:0E0E7700E5BEB4FF08E5BFB4FF0375B906225F
:100EA00075C60375B901AFBCEFFEADBDEDFFE4FC47
:020EB000FD2221
:100E40008F238E228D218C2075C60375B901AF23A7
:100E5000AE22AD21AC207808120B328FBC8523BDA9
:070E600075B90575B9022206
:0A0EB20075D22F75D40D75D50122FD
:100DFA00E4F520F975E64A75D1227F01FE120DD479
:100E0A0020DF19E9701605207F01FE120DD4E520B6
:100E1A00C3940A40EB120EB2790180E4AFDBEFFE15
:100E2A00ADDA7C00E42DFFEC3EFEE48F118E10F566
:050E3A000FF50EC2DF00
:010E3F002290
:100C7A00E4F527F526F525F524F52BF52AF529F5CA
:100C8A0028F5277526C07525207524447527007513
:100C9A0026C0752520752444120DACE4F527F526E7
:100CAA00752580752445120DACE4FFFE7D807C45D8
:100CBA00AB27AA26A925A8241209985047AF27AE20
:100CCA0026AD25AC24120A43EE3395E08F178E1613
:100CDA00F515F514FDAC147808120B328FFC851744
:100CEA00FB7FD07E07120DD4AF27AE26AD25AC24EC
:100CFA00E4FBFA794878431208078F278E268D2558
:100D0A008C2480A57527007526C075252075244476
:030D1A00020C9632
:010EBC002213
:100B4500E4F51BF51AF519F518F51FF51EF51DF554
:100B55001C75D70375FD03F5FCF5FBD287F50C7500
:100B65000D01D2B1120E67120EB2E4F50B750AC86B
:100B7500F509F50820B121E4F5FD7F02FE120DD43B
:100B8500120DFAAF11AE10AD0FAC0E120E407F0173
:100B95007E00120DD475FD03120DFA85111B85100B
:100BA5001A850F19850E18E4751BFF751AFFF519BF
:100BB500F5187F607EEAFDFCAB1BAA1AA919A818D7
:100BC500C3120B214009E4F51BF51AF519F518E4D4
:100BD500FFFEFDFCAB1BAA1AA919A818D3120B21FD
:100BE5005009E4F51BF51AF519F518E47F7D7E0D1E
:100BF500FDFCAB1BAA1AA919A818120AC4E4120A0B
:100C0500058F1F8E1E8D1D8C1CC004C005C006C01F
:100C150007AF0BAE0AAD09AC08E4120A05A804A992
:100C250005AA06AB07D007D006D005D0041208FBED
:100C35008F1F8E1E8D1D8C1C7B007AC079207844F9
:100C45001208078F1F8E1E8D1D8C1C120A438F17CD
:100C55008E168D158C147808120B328FFC8517FBB8
:100C6500120EA08F0B8E0A8D098C087FFA7E00125A
:050C75000DD4020B7913
:10080000020AAFE86480F8E933E83360110460F06D
:10081000ED33EC337009E8FCE9FDEAFEEBFF22045E
:1008200060DED3EB9FEA9EE99DE8C2E78CF0C2F759
:1008300095F0400CE8CCF8E9CDF9EACEFAEBCFFB25
:10084000120A7A85D0F05804700320D5B3E80470FA
:10085000075002B2D5020AB992D5EC0460F7E4CC95
:10086000C0E0C398F8603B94186008400DD0E0FBEE
:10087000020A91E4FBFAC9FC8028E830E406E4C9E6
:10088000FBE4CAFCE830E305E4C9CACBFCE8540742
:100890006010F8C3E913F9EA13FAEB13FBEC13FC4D
:1008A000D8F130F52FC3E49CFCEF9BFFEE9AFEEDF0
:1008B00099FDD0E0FBEF4E4D4C701222DB03020A93
:1008C000B6EC2CFCEF33FFEE33FEED33FDED30E7FD
:1008D000EB020A91EF2BFFEE3AFEED39FDD0E0FB83
:1008E00050130BBB0003020AB9ED13FDEE13FEEF2C
:0808F00013FFEC13FC020A9156
:1008F800020AB9EC5D046005E859047003020AAF06
:10090800120A7A580460F6EC4860F2EC7004FDFEB6
:10091800FF22C860DB2481C85009C39860025006D2
:10092800020AB69850CAF582E9294B4A7005AB828B
:10093800020AA575F0007C1A7880C3EF9BEE9AED49
:1009480099400DC3EF9BFFEE9AFEED99FDE842F04A
:10095800DC23ACF0D0E0FFD0E0FED0E0FDAB82209D
:10096800E7101BEB60BAEC2CFCEF33FFEE33FEED27
:1009780033FD020A91E803F830E705C0F075F0008E
:10098800EF2FFFEE33FEED33FD40B830E7C280AA0B
:1009980074F8CC6480CCC86480C8F582046043C312
:1009A800EB9FF5F0EA9E42F0E99D42F0E89C45F0A5
:1009B80060305018E5825FFFE582F42B5582FB50CA
:1009C800210ABA001D09B90019088016E5825BFBE7
:1009D800E582F42F5582FF50090EBE00050DBD00BB
:1009E800010CC3EB9FF5F0EA9E42F0E99D42F0E866
:0D09F8009C45F06007CC4820E701B3EC22DD
:100A050075F020800E75F010800575F0087D007E6C
:100A1500007F003392D530D503120B13EC33401011
:100A2500EF33FFEE33FEED33FDEC33FCD5F0ED2275
:0E0A3500E5F0247EA2D513CC92E7CDCEFF22B1
:100A4300EDD2E7CD33EC3392D524814006E4FFFEAB
:100A5300FDFC22FCE4CFCECDCC24E0501174FF800A
:100A6300EDC3CC13CCCD13CDCE13CECF13CF0470A7
:070A7300F030D5DE020B1389
:100A7A00E9D2E7C933E833F892D5EDD2E7CD33ECC2
:070A8A0033FC5002B2D5223B
:100A9100EC30E7100FBF000C0EBE00080DBD0004C6
:100AA1000BEB6014A2D5EB13FCED92E7FD2274FF72
:100AB100FCFDFEFF22E480F8A2D574FF13FC7D80CB
:030AC100E480EFDF
:100D2C00020B45E493A3F8E493A34003F68001F28D
:100D3C0008DFF48029E493A3F85407240CC8C333C8
:100D4C00C4540F4420C8834004F456800146F6DF97
:100D5C00E4800B0102040810204080900E85E47E94
:100D6C00019360BCA3FF543F30E509541FFEE4938C
:100D7C00A360010ECF54C025E060A840B8E493A353
:100D8C00FAE493A3F8E493A3C8C582C8CAC583CA7E
:100D9C00F0A3C8C582C8CAC583CADFE9DEE780BE36
:010E9F000052
:100AC400E88FF0A4CC8BF0A42CFCE98EF0A42CFCD1
:100AD4008AF0EDA42CFCEA8EF0A4CDA8F08BF0A44F
:100AE4002DCC3825F0FDE98FF0A42CCD35F0FCEBAE
:100AF4008EF0A4FEA9F0EB8FF0A4CFC5F02ECD3973
:0F0B0400FEE43CFCEAA42DCE35F0FDE43CFC22DF
:0E0B1300C3E49FFFE49EFEE49DFDE49CFC22F3
:100B2100EB9FF5F0EA9E42F0E99D42F0E89C45F02A
:010B310022A1
:100B3200E8600FECC313FCED13FDEE13FEEF13FFA1
:030B4200D8F122C5
:00000001FF
