S00F0000477265617665732E7372656348
S1130000CEC00000DDC00000DBC00000D9C000008D
S1130010D7C00000D5C00000D3C00000D1C000008C
S1130020CFC00000CDC00000CBC00000C9C000009C
S113003061C30000C5C00000C3C00000C1C000000F
S1130040BFC00000BDC00000BBC00000B9C00000BC
S1130050B7C00000B5C00000B3C00000B1C00000CC
S1130060AFC00000ADC00000ABC00000A9C00000DC
S1130070A7C00000A5C00000A3C00000A1C00000EC
S11300809FC000009DC000009BC00000D502E50297
S1130090F502050316032703380349036E616E0056
S11300A0696E660000407A10F35A00A0724E180977
S11300B00010A5D4E80000E87648170000E40B54CB
S11300C0020000CA9A3B000000E1F505000080969A
S11300D09800000040420F000000A08601000000CC
S11300E0102700000000E803000000006400000086
S11300F000000A00000000000100000000002C764F
S1130100D888DC674F0823DFC1DFAE59E1B1B79669
S1130110E5E3E453C63AE651997696E8E6C28426C6
S1130120EB898C9B62ED407C6FFCEFBC9C9F40F2A2
S1130130BAA56FA5F490055A2AF75C936B6CF9671E
S11301406DC11BFCE0E40D47FEF520E6B500D0EDE3
S1130150902E0300943577050080841E080000204B
S11301604E0A000000C80C333333330F986E1283E9
S11301701141EF8D2114893BE65516CFFEE6DB18BD
S1130180D1844B381BF77C1D901DA4BBE424203282
S113019084725E228100C9F124ECA1E53D2711247B
S11301A01FBECFEFD0E1DEBFCDBF21E0A0E0B1E0C4
S11301B001C01D92A23BB207E1F780D60C9427132D
S11301C01FCFB89AC09887B3866087BB8DB183650B
S11301D08DB908958FB985E08A95F1F7779BFECFA5
S11301E008951F93CF93DF93162F95B321E030E04A
S11301F0E90102C0CC0FDD1F4A95E2F72C2F2095B0
S1130200922395BB95E09A95F1F7E4DF85E08A9512
S1130210F1F7812FDFDF95E09A95F1F785B3C82BCD
S1130220C5BB85E08A95F1F7DF91CF911F910895C1
S1130230CF93DF93D82F833049F443E060E081E02B
S1130240D0DF43E060E082E0CCDF07C0C8E04D2FA0
S11302506FE08C2FC6DFC150D1F7DF91CF910895A5
S1130260BF92CF92DF92EF92FF920F931F93CF939F
S1130270DF937C01D62EC42FB22E423019F000E059
S113028084E002C004E088E0DFEFD80F4D2D6FE07A
S1130290A8DF0D1710F48D2FF7CFC13009F4E2C099
S11302A0C23009F0E6C0D7C04D2D60E084E099DF8C
S11302B0E5C0C23009F0E2C04D2D60E088E091DF76
S11302C0DDC0CC24CA94CD0EE70110E00B1911094E
S11302D001C0CA9451E05C0DE52FF0E0E017F1078E
S11302E079F5BB2069F19E01ADECBCEC0E9468116C
S11302F09695879596958795969587959C01220F57
S1130300331F880F991F880F991F880F991F820F19
S1130310931FBE01681B790B60684D2D852F61DF2B
S11303209E01ADECBCEC0E946811EC01D695C7951A
S1130330D695C795D695C795209759F6CC2D30C03C
S11303409E01ADECBCEC0E946811FC01F695E795AA
S1130350F695E795F695E795CF01880F991FEE0F6F
S1130360FF1FEE0FFF1FEE0FFF1FE80FF91FBE0167
S11303706E1B7F0B4D2D852F34DF9E01ADECBCEC45
S11303800E946811EC01D695C795D695C795D69568
S1130390C795209709F09DCFBB2009F46FC0CC2DE1
S11303A082E0B81681F083E0B81639F181E0B81222
S11303B065C08AE0E816F10408F060C04D2D60E8DD
S11303C08C2F0FDF5BC097012A5031092A35310584
S11303D028F44D2D60E88C2F04DF50C08AE0E81625
S11303E0F10408F04BC04D2D60E08C2FFADE4D2D4A
S11303F060E88FEF8C0FF5DE41C097012456310978
S11304002438334020F44D2D60E88C2FEADE970128
S11304102A5031092A35310558F4CC24CA94CC0E1B
S11304204D2D60E08C2FDDDE4D2D60E88C2DD9DE66
S11304308AE0E816F10410F54D2D60E08C2DD1DE34
S11304404D2D60E08FEF8C0DCCDE4D2D60E88EEFEE
S11304508C0DC7DE13C0E114F10409F42DCF08E0BC
S1130460D8E02FCFE114F10409F41ECF04E0D4E066
S113047028CFE114F10409F41CCF23CFDF91CF91ED
S11304801F910F91FF90EF90DF90CF90BF90089550
S1130490CF9384B38F6084BBC0E08C2FC9DE4C2F14
S11304A06FEF89E09EDE4C2F67E08BE09ADE4C2FE5
S11304B068E08AE096DE4C2F61E08CE092DE4C2FFF
S11304C060E08FE08EDE8FEF9FE80197F1F700C0C8
S11304D00000CF5FC33009F783E0AADE43E060E0A9
S11304E089E07FDE43E067E08BE07BDE43E068E0A9
S11304F08AE077DE43E061E08CE073DE43E060E0B5
S11305008FE06FDE8FEF9FE80197F1F700C00000E6
S1130510CF9108956230B1F028F4662349F0613038
S113052061F008956430C1F090F06530D1F0089521
S113053020E041E060E094CE089520E042E060E0F5
S11305408FCE089521E041E061E08ACE089520E055
S113055042E061E085CE089521E041E062E080CE92
S1130560089520E042E062E07BCE0895613029F4F2
S113057043E0682F81E035CE0895623051F4BC0128
S1130580729562956F7067277F70672743E082E0FA
S113059028CE0895CF9390E08830910508F088C064
S11305A0FC01EA5BFF4F0C946211C4E040E06FE091
S11305B08C2F17DEC150D1F740E06BE083E011DEF1
S11305C040E061E084E00DDE73C0C4E041E06FE030
S11305D08C2F07DEC150D1F741E06BE083E001DEF0
S11305E041E062E084E0FDDD63C0C4E041E06FE02F
S11305F08C2FF7DDC150D1F741E06BE083E0F1DDF2
S113060041E063E084E0EDDD53C0C8E041E06FE029
S11306108C2FE7DDC150C430C9F741E06BE087E0BF
S1130620E0DD41E064E088E0DCDD42C0C8E041E0B8
S11306306FE08C2FD6DDC150C430C9F741E06BE0C8
S113064087E0CFDD41E065E088E0CBDD31C0C8E084
S113065040E06FE08C2FC5DDC150C430C9F740E0E5
S11306606BE087E0BEDD40E066E088E0BADD20C0F4
S1130670C8E040E06FE08C2FB4DDC150C430C9F74E
S113068040E06BE087E0ADDD40E067E088E0A9DDB5
S11306900FC0C4E042E06FE08C2FA3DDC150D1F75E
S11306A042E06BE083E09DDD42E068E084E099DDB8
S11306B0CF9108958EB588608EBD1DBC1CBC089575
S11306C01DBC1CBC80E29CE19BBD8ABD87B78061D8
S11306D087BF8EB585608EBD089516981E9A0895BD
S11306E01092890010928800EAE8F0E08081866028
S11306F0808308951F920F920FB60F9211240BB6A8
S11307000F922F933F934F935F936F937F938F93A6
S11307109F93AF93BF93EF93FF9310928A008091BE
S113072088009091890090931E0180931D0160912F
S11307301D0170911E0180E090E00E94C60C21EC26
S11307403AEC41E65FE30E94780D0E949A0C7093A4
S11307501E0160931D01C4DF81E08093320180910A
S11307602E01882369F080912F018F5F80932F01E0
S113077080912F01853120F010922E0110922F01CB
S113078080912C01882369F080912D018F5F8093E3
S11307902D0180912D01853120F010922C011092B1
S11307A02D0180912B0181110FC08091300191E0C6
S11307B0980F90933001853158F081E08093310196
S11307C082E38093300104C0109231011092300111
S11307D0FF91EF91BF91AF919F918F917F916F9115
S11307E05F914F913F912F910F900BBE0F900FBED1
S11307F00F901F901895379A08953E9A86B1876096
S113080086B9F9CF089597B1987F892B87B9369A1D
S11308103699FECF84B195B1089560E088EB92E2F9
S113082079DE61E088EB92E275DE62E088EB92E2C9
S113083071DE63E088EB92E26DDE64E088EB92E2C5
S113084069DE65E088EB92E265DE61E08FEF90E0BF
S11308508DDE62E08FEF90E089DE2FEF8FEF9CE278
S1130860215080409040E1F700C0000080E0E0DCCF
S113087081E0DEDC82E0DCDC83E0DACC08951092F7
S113088080011092830110928A0180911D01909140
S11308901E01853C994018F081E08093830180918A
S11308A01D0190911E018D36974018F081E08093D0
S11308B0800180911D0190911E010A9798F4809106
S11308C0410181110FC081E080938A018091270149
S11308D08F5F8F3118F48093270104C085E18093E2
S11308E0270104C080912701853130F081E0809395
S11308F0830180E04FDE06C080911D0190911E01AE
S113090060E008DE80918A01811102C01092270103
S1130910089510923E01109241011092480180E026
S113092072DF90931A01809319018834910530F491
S113093081E080934801809341012CDE809119016C
S113094090911A018B39934038F081E080934801EB
S11309508093410182E01EDE8091190190911A0179
S1130960813E910518F421E0209341019C01215E10
S113097031092235310518F421E020933E012091FC
S1130980480121111FC0BC0166567109772314F474
S113099060E070E0882777FD8095982FF9D723E2EF
S11309A03BED49EF5DE30E94780D60930F01709376
S11309B010018093110190931201BCD7DC01CB018B
S11309C062E0A8CD0895CF92DF92EF92FF92F82EC5
S11309D01092750110927F0181E015DF9093180148
S11309E080931701FF2089F09093970180939601DB
S11309F09093950180939401909393018093920135
S1130A0090939101809390011BC0E4E9F1E080810F
S1130A1091819093970180939601A2E9B1E08D9121
S1130A209C91119791838083E0E9F1E08081918129
S1130A308D939C9380918E0190918F0191838083FB
S1130A40809117019091180190938F0180938E01EA
S1130A50EEE8F1E048E951E020E030E08191919145
S1130A60280F391FE417F507C9F7ADECBCEC0E9459
S1130A706811BC0176956795769567957093180112
S1130A806093170180917F0181114BC0CB01880FC6
S1130A90991F880F991F680F791F80E090E076D71F
S1130AA020E030E040E85AE30E94780D20E030E096
S1130AB04AE754E40E94780D20E030E048EA51E42B
S1130AC0D1D620E030E048EC52E463D628EB3EE196
S1130AD045EC5EE3C7D66B017C0120E030E0A90160
S1130AE0BDD618164CF4C0920B01D0920C01E092C2
S1130AF00D01F0920E0108C010920B0110920C012E
S1130B0010920D0110920E0160910B0170910C0175
S1130B1080910D0190910E010DD7DC01CB0163E0B2
S1130B20F9DCFF90EF90DF90CF900895CF92DF92A1
S1130B30EF92FF92F82E1092330110923D0182E061
S1130B4062DE9093160180931501FF2089F0909343
S1130B5054018093530190935201809351019093D7
S1130B60500180934F0190934E0180934D011BC01F
S1130B70E1E5F1E0808191819093540180935301E8
S1130B80AFE4B1E08D919C91119791838083EDE462
S1130B90F1E0808191818D939C9380914B019091A0
S1130BA04C0191838083809115019091160190935B
S1130BB04C0180934B01EBE4F1E045E551E020E08A
S1130BC030E081919191280F391FE417F507C9F797
S1130BD0ADECBCEC0E946811BC01769567957695E6
S1130BE06795709316016093150180913D01811101
S1130BF049C0CB01880F991F880F991F680F791F6F
S1130C0080E090E0C3D620E030E040E85AE370D7BB
S1130C1020E030E04AE754E46BD720E030E048EAD3
S1130C2051E420D620E030E048EC52E4B2D528EB81
S1130C303EE145EC5EE316D66B017C0120E030E03A
S1130C40A9010CD618164CF4C0920701D0920801E1
S1130C50E0920901F0920A0108C010920701109273
S1130C6008011092090110920A0160910701709124
S1130C7008018091090190910A015CD6DC01CB0145
S1130C8061E048DCFF90EF90DF90CF900895CF9320
S1130C90C82F10929C011092A60183E0B4DD9093BA
S1130CA0140180931301CC2389F090936F018093F6
S1130CB06E0190936D0180936C0190936B0180930E
S1130CC06A0190936901809368011BC0ECE6F1E02E
S1130CD08081918190936F0180936E01AAE6B1E0C7
S1130CE08D919C91119791838083E8E6F1E0808156
S1130CF091818D939C93809166019091670191837A
S1130D0080838091130190911401909367018093E3
S1130D106601E6E6F1E040E751E020E030E0819151
S1130D209191280F391FE417F507C9F7ADECBCEC16
S1130D300E946811BC0176956795769567957093C6
S1130D401401609313016536710518F481E08093F2
S1130D509C01653383E0780740F081E08093A6012D
S1130D6080939C0187E016DC1AC080E090E00ED6E8
S1130D7026EF38E24CE55EE3BBD620E030E04EE1FE
S1130D8053E408D560930301709304018093050133
S1130D9090930601CFD5DC01CB0164E0BBDBCF919E
S1130DA00895CE9904C081E08093A701089510921C
S1130DB0A7010895CF9904C081E080935901089553
S1130DC0109259010895C0E060E08C2F90E00E94D9
S1130DD00213CF5FF9CF1F93CF93DF9380912A0142
S1130DE0882309F454C080910001883720F48F5F70
S1130DF0809300014CC010920001F89484E090E0CC
S1130E000E94F5129FEF980F9E3F30F06AE084E055
S1130E1090E00E9402138AE0C82FD0E0CE010E9425
S1130E20F5128C3318F411E0180F01C010E0612F93
S1130E30CE010E94021378941C3348F1F89484E0A4
S1130E4090E00E94F51261E0680F6F3F09F46AE0D8
S1130E5084E090E00E94021380E090E00E94FD1282
S1130E608F3027E2920728F010921C0110921B0188
S1130E7005C0019690931C0180931B0160911B0196
S1130E8070911C0180E090E00E941313789480E03C
S1130E9090E00E94FD1290931C0180931B018F30FF
S1130EA027E2920728F010921C0110921B018BDF9D
S1130EB065E030DBDF91CF911F9108958AB38C6098
S1130EC08ABBDA9A2FEF8FE796E121508040904059
S1130ED0E1F700C00000DA98EFEFFFE726E1E15008
S1130EE0F0402040E1F700C000008AB383618ABB70
S1130EF0E4E6F0E08081806180838F9A8AB38F7307
S1130F008ABB81B38C7F81BB14985BD9C1DA75DC51
S1130F10E4DBD0DB82DCE4DBD3DB78948FEF9FE788
S1130F20E6E181509040E040E1F700C00000F1DCD0
S1130F3081E049DD81E0FADDA2DC81E0A8DE31DF79
S1130F4039DF49DF212C0F2EF3E6AF2EB12CF02D23
S1130F503324339407E411E00F2EF1E48F2EF1E0F3
S1130F609F2EF02D0F2EFFE3EF2EF1E0FF2EF02D3C
S1130F70C2E4D1E00F2EF0E44F2EF1E05F2EF02D0D
S1130F800F2EF5E4CF2EF1E0DF2EF02D0F2EF6E438
S1130F906F2EF1E07F2EF02D809132018823B9F07D
S1130FA010923201B6DC6BDC16DF04DFFADEF5E00A
S1130FB0F21540F480E007DD80E0B8DD80E067DE14
S1130FC0212C01C023949BB384E089278BBB809997
S1130FD004C081E08093260102C0109226010C9B7C
S1130FE004C081E08093250102C010922501F5011F
S1130FF0808183FF04C081E08093240102C01092A9
S11310002401F501808182FF04C081E080932301E3
S113101002C01092230180911D0190911E0184361B
S1131020910528F4309221011092220104C01092FB
S113103022011092210180911D0190911E01853F92
S1131040914028F030921F011092200104C01092A8
S1131050200110921F0180913101882369F0809151
S11310601F0190912001892B21F4F40180818111C9
S113107003C081E0F801808380912C01882311F062
S1131080F8011082EEE3F1E08081882321F0F80179
S11310908081811152C2F7018081882309F447C2FB
S11310A080912301882309F448C241C2809101013F
S11310B0909102018064909302018093010161E0A8
S11310C055DA0BC080910101909102018F7B9093BE
S11310D002018093010161E049DAF70180818823EC
S11310E009F416C38091240181112BC2F20180817D
S11310F0811127C210C380E0F6018083F40180814E
S1131100882349F0F801808181111FC2E8E4F1E0ED
S1131110808181111AC28881882309F41DC28091BB
S11311202301882309F411C217C2E3E4F1E08081AA
S1131130811117C2F4C280E0F3018083E3E3F1E09C
S11311408081811113C280913401882309F41EC265
S113115080912301882309F409C218C280913401C3
S1131160882309F4E1C28091240181111EC2809177
S1131170350181111AC2DBC280E08093390180916C
S11311807501811116C280917601882309F421C268
S113119080912301882309F40CC21BC2809176013B
S11311A0882309F4C8C280912401811121C280914D
S11311B0770181111DC2C2C280E080937B018091BE
S11311C09C01811119C280919D01882309F424C2D4
S11311D080912301882309F40FC21EC280919D01CE
S11311E0882309F4AFC280912401811124C2809123
S11311F09E01811120C2A9C280E08093A201809146
S1131200A70181111CC28091A801882309F427C277
S113121080912301882309F412C221C28091A8017C
S1131220882309F496C280912401811127C28091F8
S1131230A901811123C290C280E08093AD01809105
S1131240590181111FC280915A01882309F42AC2CD
S113125080912301882309F415C224C280915A0184
S1131260882309F487C28091240181112AC28091C4
S11312705B01811126C274C280E001C081E08093C9
S11312805F0181E08093890180918001811125C2F1
S113129080918101882309F418C280912301882355
S11312A009F41BC212C2809101019091020180686D
S11312B0909302018093010161E058D90BC08091A1
S11312C00101909102018F779093020180930101B3
S11312D061E04CD980918101882309F44EC2809148
S11312E024018111FEC1809182018111FAC148C299
S11312F080E08093870180918301882321F080918D
S113130089018111F2C180918401882309F4F5C116
S113131080912301882309F4E8C1809121019091EF
S11313202201892B09F4E1C1E8C180918501811171
S1131330EAC12AC280E0809388018881811105C0B6
S1131340832D911103C080E001C081E0282F809398
S1131350290180911F0190912001892B41F4F4010E
S11313608081882321F080912B01811113C0809109
S1131370210190912201892B79F080912801882301
S113138069F021110DC090912C01832D992349F00E
S113139080E007C081E005C080E003C080E001C0B8
S11313A080E080932B0180912601811104C08091FB
S11313B02E01882339F090912B01832D911103C0C4
S11313C080E001C080E080932E01F80180818823B1
S11313D079F080910101909102018460909302015F
S11313E08093010161E0C2D881E080932A010DC09D
S11313F080910101909102018B7F9093020180936F
S1131400010161E0B3D810922A0180912501811174
S11314100BC080912C01811109C0832D9091290169
S1131420911105C080E003C081E001C081E0809398
S11314302C0180912B01882369F0979A80910101F6
S1131440909102018160909302018093010161E017
S11314508DD80CC0979880910101909102018E7FE4
S1131460909302018093010161E080D880912E0164
S1131470882311F0D89A01C0D89880912C01882330
S113148069F0D99A80910101909102018260909350
S113149002018093010161E069D80CC0D998809160
S11314A00101909102018D7F9093020180930101CB
S11314B061E05CD88091190190911A018C389105F2
S11314C020F481E08093280102C010922801F601E3
S11314D08081811120C0F301808181111CC0809121
S11314E03901811118C080917B01811114C0809150
S11314F0A201811110C08091AD0181110CC08091B5
S11315008701811108C080918801811104C08091F4
S11315105F01882331F0E5E6F0E08081806180831B
S11315203BCDE5E6F0E080818F7E808335CDF70109
S1131530108288818111BACDC5CD81E0F701808305
S1131540B5CD81E0F2018083D6CD81E0888380919E
S11315502401811106C0E9CD1882E3E4F1E0108290
S1131560EACD81E0E3E4F1E08083E5CD81E080939E
S113157034018091010190910201806190930201F4
S11315808093010161E00E94B602E8CD109234011B
S113159080910101909102018F7E909302018093CA
S11315A0010161E00E94B602D9CD81E0809335014A
S11315B0E3CD81E080937601809101019091020155
S11315C08062909302018093010161E00E94B6025F
S11315D0E5CD1092760180910101909102018F7DF9
S11315E0909302018093010161E00E94B602D6CD7E
S11315F081E080937701E0CD81E080939D0180912B
S1131600010190910201886090930201809301018D
S113161061E00E94B602E2CD10929D018091010129
S113162090910201877F909302018093010161E010
S11316300E94B602D3CD81E080939E01DDCD81E08E
S11316408093A8018091010190910201916090938F
S113165002018093010162E00E94B602DFCD109284
S1131660A80180910101909102019E7F9093020153
S11316708093010162E00E94B602D0CD81E08093A4
S1131680A901DACD81E080935A0180910101909102
S113169002019260909302018093010162E00E9432
S11316A0B602DCCD10925A018091010190910201A1
S11316B09D7F909302018093010162E00E94B60233
S11316C0CDCD81E080935B01D7CD109281018091D3
S11316D08401882309F4F3CDE6CD81E08093810170
S11316E0E2CD81E08093820103CE81E08093840186
S11316F080912401811107C018CE109284011092A8
S1131700850190E017CE81E08093850191E012CEAF
S1131710F2011082F0CCF201108281E0EDCCE3E41E
S1131720F1E0108281E008CD1092350125CD1092B0
S1131730350181E022CD109277013ECD10927701E0
S113174081E03BCD10929E0157CD10929E0181E025
S113175054CD1092A90170CD1092A90181E06DCDF4
S113176010925B0180911F0190912001892B09F057
S113177085CD82CD10925B017FCD10928201B8CDD0
S11317801092820181E0B5CD1092850191E081E053
S1131790D2CD5058BB27AA270ED070C161D130F0EA
S11317A066D120F031F49F3F11F41EF456C10EF4BB
S11317B0E095E7FB4CC1E92F72D180F3BA176207B9
S11317C073078407950718F071F49EF58AC10EF427
S11317D0E0950B2EBA2FA02D0B01B90190010C013D
S11317E0CA01A0011124FF27591B99F0593F50F455
S11317F0503E68F11A16F040A22F232F342F4427AD
S1131800585FF3CF469537952795A795F0405395A4
S1131810C9F77EF41F16BA0B620B730B840BBAF074
S11318209150A1F0FF0FBB1F661F771F881FC2F7DF
S11318300EC0BA0F621F731F841F48F487957795F3
S11318406795B795F7959E3F08F0B3CF9395880FAA
S113185008F09927EE0F979587950895D4D008F44A
S113186081E008950CD00AC102D140F0F9D030F0E3
S113187021F45F3F19F0EBC0511134C1EEC00FD118
S113188098F39923C9F35523B1F3951B550BBB2743
S1131890AA2762177307840738F09F5F5F4F220FF0
S11318A0331F441FAA1FA9F333D00E2E3AF0E0E8E9
S11318B030D091505040E695001CCAF729D0FE2F35
S11318C027D0660F771F881FBB1F261737074807C7
S11318D0AB07B0E809F0BB0B802DBF01FF2793587D
S11318E05F4F2AF09E3F510568F0B1C0FBC05F3FD7
S11318F0ECF3983EDCF3869577956795B795F79565
S11319009F5FC9F7880F911D9695879597F908955C
S1131910E1E0660F771F881FBB1F621773078407F8
S1131920BA0720F0621B730B840BBA0BEE1F88F707
S1131930E0950895BCD088F09F5790F0B92F99276F
S1131940B751A0F0D1F0660F771F881F991F1AF0C6
S1131950BA95C9F712C0B13081F0C3D0B1E008958F
S1131960C0C0672F782F8827B85F39F0B93FCCF310
S1131970869577956795B395D9F73EF490958095BC
S1131980709561957F4F8F4F9F4F0895E89409C0DC
S113199097FB3EF490958095709561957F4F8F4F9E
S11319A09F4F9923A9F0F92F96E9BB279395F695B4
S11319B0879577956795B795F111F8CFFAF4BB0F32
S11319C011F460FF1BC06F5F7F4F8F4F9F4F16C096
S11319D0882311F096E911C0772321F09EE8872F20
S11319E0762F05C0662371F096E8862F70E060E0DC
S11319F02AF09A95660F771F881FDAF7880F969555
S1131A00879597F90895990F0008550FAA0BE0E8F8
S1131A10FEEF16161706E807F907C0F012161306AC
S1131A20E407F50798F0621B730B840B950B39F4EC
S1131A300A2661F0232B242B252B21F408950A2652
S1131A4009F4A140A6958FEF811D811D089597F992
S1131A509F6780E870E060E008959FEF80EC089550
S1131A6000240A9416161706180609060895002479
S1131A700A9412161306140605060895092E0394F3
S1131A80000C11F4882352F0BB0F40F4BF2B11F467
S1131A9060FF04C06F5F7F4F8F4F9F4F089557FDC6
S1131AA09058440F551F59F05F3F71F04795880FC8
S1131AB097FB991F61F09F3F79F08795089512165F
S1131AC013061406551FF2CF4695F1DF08C016160B
S1131AD017061806991FF1CF8695710561050894BC
S1131AE00895E894BB2766277727CB0197F90895D3
S1131AF00BD0C4CFB5DF28F0BADF18F0952309F076
S1131B00A6CFABCF1124EECFCADFA0F3959FD1F3BC
S1131B10950F50E0551F629FF001729FBB27F00D97
S1131B20B11D639FAA27F00DB11DAA1F649F6627EC
S1131B30B00DA11D661F829F2227B00DA11D621F3B
S1131B40739FB00DA11D621F839FA00D611D221FF5
S1131B50749F3327A00D611D231F849F600D211DD9
S1131B60822F762F6A2F11249F5750408AF0E1F07C
S1131B7088234AF0EE0FFF1FBB1F661F771F881FC5
S1131B8091505040A9F79E3F510570F060CFAACF05
S1131B905F3FECF3983EDCF3869577956795B795B0
S1131BA0F795E7959F5FC1F7FE2B880F911D9695DA
S1131BB0879597F908952F923F924F925F926F9273
S1131BC07F928F929F92AF92BF92CF92DF92EF92C9
S1131BD0FF920F931F93CF93DF93CDB7DEB7639735
S1131BE00FB6F894DEBF0FBECDBF7C011B016A01A6
S1131BF0FC0117821682838181FF49C3BE016F5F96
S1131C007F4F4B01F7019381F10193FD859193FF80
S1131C1081911F01882309F436C3853239F493FD79
S1131C20859193FF81911F01853231F4B70190E0D2
S1131C304CD456016501E6CF10E0512C20E020324F
S1131C40A0F48B3269F030F4803259F0833269F4B5
S1131C5020612CC08D3239F0803339F4216026C0E4
S1131C602260246023C0286021C027FD27C030EDF6
S1131C70380F3A3078F426FF06C0FAE01F9F300D83
S1131C801124132F13C06AE0569E300D1124532ED5
S1131C9020620CC08E3221F426FDF5C2206406C0F9
S1131CA08C3611F4206802C0883641F4F10193FDAA
S1131CB0859193FF81911F018111C1CF9BEB980FF7
S1131CC0933018F42061805E06C09BE9980F93302E
S1131CD008F09AC12F7E26FF16E02F73722E8536E8
S1131CE021F4F22FF0647F2E08C0863621F4622F8F
S1131CF06068762E02C01111115077FE07C01C33A4
S1131D0048F444244394410E27E00BC0183030F4C7
S1131D10212F06C027E04CE3442E03C027E017E040
S1131D20412C560174E0A70EB11CF601608171814B
S1131D3082819381042DA401DAD26C01098100FF10
S1131D4002C003FF06C071FC07C072FC08C0612C0E
S1131D5008C03DE2632E05C02BE2622E02C090E271
S1131D60692E802F8C7081F1662011F084E001C00F
S1131D7083E0851510F0512C0AC0581A73FC07C073
S1131D80B70180E290E0A1D35A94D1F7F4CF662052
S1131D9021F0B701862D90E098D303FD03C000EA3B
S1131DA010E002C00CE910E0F72DF0717F2EF8016D
S1131DB08491882309F45EC271108052B70190E0C7
S1131DC084D30F5F1F4FF3CF77FE0FC04C0C04FF7B
S1131DD004C08A81813309F44A94141474F5F8E038
S1131DE0F41578F588E0482E2CC076FC2AC0812FA3
S1131DF090E08C159D059CF06CEFC6166FEFD6062F
S1131E0074F0772D7068772E0AC0E2E0F0E0EC0FF2
S1131E10FD1FE10FF11D8081803319F41150111160
S1131E20F4CF77FE0EC044244394410E812F90E0FA
S1131E30C816D9062CF41C1904C04424439401C0C8
S1131E4010E077FE07C01C141D043CF496012F5FBC
S1131E503F4F05C025E030E002C021E030E06620BD
S1131E6011F02F5F3F4F112331F0412F50E04F5FAE
S1131E705F4F240F351F452D50E02417350714F408
S1131E80521A01C0512C872D897041F4552031F02C
S1131E90B70180E290E019D35A94F8CF662021F07C
S1131EA0B701862D90E011D373FC08C0552031F0A2
S1131EB0B70180E390E009D35A94F8CF77FE5DC070
S1131EC09C2D8D2DD7FE02C090E080E0692E782EE7
S1131ED040E050E0C601841991099D878C879601E2
S1131EE026193709280D391D812F90E0EE27FF2789
S1131EF0E81BF90BFF87EE87FFEF6F167F0661F48F
S1131F00B7018EE290E02B8B3A8B488B598BDDD254
S1131F10598948893A892B89C614D70454F06C85A9
S1131F207D85661577052CF4F901E40FF51F818191
S1131F3001C080E371E0671A71084F5F5F4FEE855F
S1131F40FF856E167F0664F0B70190E02B8B3A8B09
S1131F50488B598BBAD22B893A8948895989CCCF75
S1131F606C147D0439F49A81963318F4953311F482
S1131F7004FF81E3B70190E045C08A81813309F011
S1131F800F7EB70190E0A1D2111105C074FE16C0F6
S1131F9085E490E015C0B7018EE290E096D282E02D
S1131FA066246394680EF401E80FF11D8081B70183
S1131FB090E08BD2115051F3862DF2CF85E690E05C
S1131FC0B70183D2D7FC05C0C114D10439F404FF8E
S1131FD005C0D194C194D1088DE201C08BE2B70150
S1131FE090E073D280E36AE0C616D1042CF08F5FD0
S1131FF0FAE0CF1AD108F7CFB70190E066D2B70163
S1132000C601C09662D236C1833631F0833779F087
S1132010833509F054C020C0560172E0A70EB11CEC
S1132020F6018081898301E010E0640113C0560148
S1132030F2E0AF0EB11CF601C080D18026FF03C0D0
S1132040612F70E002C06FEF7FEFC6012B8B32D29D
S11320508C012B892F7714C05601F2E0AF0EB11C0E
S1132060F601C080D18026FF03C0612F70E002C05A
S11320706FEF7FEFC6012B8B12D28C012B89206866
S1132080722E23FD18C0852D90E00817190798F4C7
S1132090B70180E290E019D25A94F5CFF60177FCAB
S11320A0859177FE81916F01B70190E00ED25110B6
S11320B05A94015011090115110581F7DBC08436CA
S11320C011F0893649F5560127FF09C0F4E0AF0E37
S11320D0B11CF60160817181828193810AC0F2E0B2
S11320E0AF0EB11CF60160817181882777FD809560
S11320F0982F022F0F7697FF08C0909580957095C2
S113210061957F4F8F4F9F4F00682AE030E0A40114
S11321100ED2C82EC8183DC0022F853721F40F7E79
S11321202AE030E01DC0097F8F3691F018F488351D
S113213059F0A9C0803719F0883711F0A4C00061A4
S113214004FF09C0046007C024FF08C0066006C07D
S113215028E030E005C020E130E002C020E132E0B8
S1132160560107FF09C0F4E0AF0EB11CF60160810F
S113217071818281938108C0F2E0AF0EB11CF60137
S11321806081718180E090E0A401D1D1C82EC8188B
S11321900F7706FF0BC0202F2E7FC11650F404FFCB
S11321A00AC002FD08C0202F2E7E05C0DC2C202F83
S11321B003C0DC2C01C0D12E24FF0DC0FE01EC0DA8
S11321C0F11D8081803311F4297E09C022FF06C0ED
S11321D0D394D39404C0822F867809F0D39423FD3A
S11321E012C020FF06C01C2DD51418F4150D1D199E
S11321F0D52CD51460F4B70180E290E02B8B65D127
S1132200D3942B89F6CFD51410F45D1801C0512C4A
S113221024FF11C0B70180E390E02B8B56D12B89AA
S113222022FF16C021FF03C088E590E002C088E7C2
S113223090E0B7010CC0822F867851F021FD02C0D6
S113224080E201C08BE227FD8DE2B70190E03DD131
S1132250C11630F4B70180E390E037D11150F8CFC4
S1132260CA94F401EC0DF11D8081B70190E02DD1E9
S1132270C110F6CF552009F4DDCCB70180E290E01F
S113228024D15A94F7CFF7018681978102C08FEF4A
S11322909FEF63960FB6F894DEBF0FBECDBFDF91FC
S11322A0CF911F910F91FF90EF90DF90CF90BF904F
S11322B0AF909F908F907F906F905F904F903F90E2
S11322C02F900895EE0FFF1F0590F491E02D0994CF
S11322D0A29FB001B39FC001A39F700D811D112463
S11322E0911DB29F700D811D1124911D08952830F8
S11322F008F027E03327DA01990F311D87FD91603B
S113230000966105710539F432602E5F3D9330E328
S11323102A95E1F708959F3F30F0803871056105F3
S113232009F03C5F3C5F3D93913008F08068911D5B
S1132330DF93CF931F930F93FF92EF92192F987F00
S11323409695E92F96959695E90FFF27E250FF4F52
S113235099273327EE24FF24A701E7010590089469
S1132360079428F4360FE71EF81E491F511D660F07
S1132370771F881F991F0694A1F70590079428F4E6
S1132380E70EF81E491F561FC11D770F881F991F9E
S1132390661F0694A1F70590079428F4F80E491FC8
S11323A0561FC71FD11D880F991F661F771F0694DC
S11323B0A1F70590079420F4490F561FC71FD81F93
S11323C0990F661F771F881F0694A9F784911095AB
S11323D0177041F0D695C79557954795F794E794AC
S11323E01A95C1F7E4EAF0E06894159015913591D7
S11323F06591959105907FE27395E118F10A430B7D
S1132400560BC90BD009C0F7E10CF11E431F561F30
S1132410C91FD01D7EF4703311F48A95E6CFE89479
S1132420015030F0080F0AF40027021708F4202F97
S11324302395022F7A3328F079E37D932A95E9F7DF
S113244010C07D932A9589F60694979567953795DC
S113245017951794E118F10A430B560BC90BD009D1
S113246098F023957E9173957A3308F070E37C930A
S11324702013B8F77E9170617D9330F0839571E3FA
S11324807D9370E32A95E1F71124EF90FF900F916B
S11324901F91CF91DF91992787FD90950895FC01B5
S11324A00590615070400110D8F7809590958E0F7B
S11324B09F1F0895FC016150704001900110D8F7EE
S11324C0809590958E0F9F1F08950F931F93CF9320
S11324D0DF93182F092FEB018B8181FD03C08FEF50
S11324E09FEF20C082FF10C04E815F812C813D810F
S11324F0421753077CF4E881F9819F012F5F3F4F16
S113250039832883108306C0E885F985812F0995CE
S1132510892B29F72E813F812F5F3F4F3F832E83E5
S1132520812F902FDF91CF911F910F910895FA0180
S1132530AA27283051F1203181F1E8946F936E7FFE
S11325406E5F7F4F8F4F9F4FAF4FB1E03ED0B4E0EF
S11325503CD0670F781F891F9A1FA11D680F791F30
S11325608A1F911DA11D6A0F711D811D911DA11D41
S113257020D009F468943F912AE0269F1124301951
S1132580305D3193DEF6CF010895462F4770405DEC
S11325904193B3E00FD0C9F7F6CF462F4F70405D9B
S11325A04A3318F0495D31FD4052419302D0A9F7F6
S11325B0EACFB4E0A6959795879577956795BA95F0
S11325C0C9F700976105710508959B01AC010A2EB6
S11325D006945795479537952795BA95C9F7620F8D
S11325E0731F841F951FA01D0895E199FECF9FBB03
S11325F08EBBE09A99278DB30895A8E1B0E042E03C
S113260050E017C0262FE199FECF9FBB8EBBE09A06
S113261001970DB2021631F02DBB0FB6F894E29A71
S1132620E19A0FBE08950196272FEDDFEBCFDC0171
S1132630CB01FC01E199FECF06C0FFBBEEBBE09AE3
S113264031960DB20D9241505040B8F70895F89468
S1052650FFCFB6
S9030000FC
